:020000040000FA
:1000000080160020CD2600003D090000C905000033
:1000100037090000370900003709000037090000E0
:100020000000000000000000000000003709000090
:1000300037090000000000003F050000D72600003F
:10004000000000008978000009450000B14400006C
:100050009DBE00003DBF000009BF000045BE00007E
:1000600000000000D145000000000000000000007A
:100070000000000000000000000000000000000080
:100080000000000000000000000000000000000070
:100090000000000000000000000000000000000060
:1000A0000000000000000000000000000000000050
:10040000FFFFFFFFDFCEFFFFFCFF0F00FFFF0F002E
:10041000FCFF0F00FFFF0F00FCFF0F00FFFF0F00AE
:10042000FCFF0F20FFFF0F20FCFF7F40FFFF7F40FE
:10043000FCFF0D40FFFF0D40FFFFFFFFFFFFFFFF31
:10044000FFFFFFFFFFFFFFFFFFFFFFFFFFFFFFFFBC
:10045000FFFFFFFFFFFFFFFFFFFFFFFFFFFFFFFFAC
:10046000FFFFFFFFFFFFFFFFFFFFFFFFFFFFFFFF9C
:10047000FFFFFFFFFFFFFFFFFFFFFFFFFFFFFFFF8C
:10048000FFFFFFFFFFFFFFFFFFFFFFFFFFFFFFFF7C
:10049000FFFFFFFFFFFFFFFFFFFFFFFFFFFFFFFF6C
:1004A000FFFFFFFFFFFFFFFFFFFFFFFFFFFFFFFF5C
:1004B000FFFFFFFFFFFFFFFFFFFFFFFFFFFFFFFF4C
:1004C000FFFFFFFFFFFFFFFFFFFFFFFFFFFFFFFF3C
:1004D000FFFFFFFFFFFFFFFFFFFFFFFFFFFFFFFF2C
:1004E000FFFFFFFFFFFFFFFFFFFFFFFFFFFFFFFF1C
:1004F000FFFFFFFFFFFFFFFFFFFFFFFFFFFFFFFF0C
:100500000348854600F09EF9004800472D09000089
:1005100080120020EFF3108072B6704780F31088CD
:1005200070472C4A1368012B03D0012313602A4A19
:1005300010602A4A11602A482A4901607047EFF387
:10054000108272B62348016800291DD00021016085
:100550002148016800290AD0EFF309812039006899
:100560000160F0C144464D4656465F46F0C11B4906
:1005700009680968F0C9F0B4F0C9A046A946B246B6
:10058000BB46F0BC81F3098882F310880320404207
:100590000047124908601049002008600D490120F9
:1005A0000860114811490268114301600C480D4967
:1005B00001600F480068006880F3088862B6BFF3E6
:1005C0004F8FBFF36F8F7047EFF3098000B508F0CE
:1005D00065F900BDE01100201C0F0020280F00204D
:1005E00004ED00E00000001020ED00E00000FFFF3F
:1005F00008ED00E030B5434351435C18010C130C87
:100600000D465D432C1980B292B2054655435143C5
:100610000A0C09044D1962415843010C00044019A9
:10062000514130BD10B5202A04DB0146203A9140EB
:10063000002010BD914020239C1A0346E34019433B
:10064000904010BD10B5202A04DB0846203AD04067
:10065000002110BD0B46D340D0402024A21A914067
:100660000843194610BD00000048704700C2000052
:1006700001466139192900D82038704703460B43D9
:100680009B0703D009E008C9121F08C0042AFAD248
:1006900003E00B780370401C491C521EF9D27047CE
:1006A000D2B201E00270401C491EFBD2704700220A
:1006B000F6E710B513460A4604461946FFF7F0FF61
:1006C000204610BD30B505462A460B4610781C78EA
:1006D000521C5B1C002801D0A042F7D0002C03D094
:1006E000002802D06D1CEFE7284630BD10B5044647
:1006F00005E00B780370401C002B00D0491C521EF3
:10070000F7D2204610BD421C0178401C0029FBD1C5
:10071000801A704710B5002200E0521C835C8C5C8C
:10072000A34201D1002BF8D1D8B2E1B2401A10BDDA
:1007300030B504460020034600E05B1C934203D220
:10074000E05CCD5C401BF8D030BD10B5044600E045
:10075000401C0378002BFBD100E0401C521E04D348
:100760000B78491C0370002BF7D100210170204643
:1007700010BD03460A780270401C491C002AF9D1BA
:100780001846704730B505460020034600E05B1C64
:10079000934205D2EC5CC85C201A01D1002CF6D142
:1007A00030BD0022CBB20178994200D10246401CF4
:1007B0000029F8D11046704770B506460BF0CCFC06
:1007C000046805460A220021304600F003F82C6038
:1007D00070BD0000F7B5009C0F4600262578641C0C
:1007E000002D05D0FFF740FF0068405DC007F5D140
:1007F0002B2D02D02D2D18D0641E39462046029A8A
:1008000000F032F8002F04D03968A14201D10099DC
:1008100039607105022400290BDA4042002803DD0B
:100820000BF09AFC0460A007FEBD01208002064385
:10083000E3E70028F8DA0BF08FFC04600048FEBD07
:10084000FFFFFF7F064C0125064E05E0E36807CC5D
:100850002B430C3C98471034B442F7D3FFF754FEB7
:10086000D0DD0000F0DD0000F7B582B0029C00276B
:100870002078641C15460197302802D0002D15D031
:1008800015E020780127641C782804D0582802D06D
:10089000002D09D00BE0002D01D0102D07D100272D
:1008A00010252078641C02E0082500E00A250026B7
:1008B000009610E00099012769430818020C2946A8
:1008C00080B2714300908E183804864201D3012013
:1008D00001902078641C294600F019F80028E9DA14
:1008E0000398002805D0002F01D0641E00E0029C70
:1008F00004600198002806D00BF02EFC0221016054
:10090000C81E05B0F0BD009930040843F9E73A2845
:1009100000D23038202302469A43412A01D31046A0
:100920003738884201D30020C043704780B50BF0B0
:1009300061FA002080BD00BE70470000F0B581B0B4
:10094000094D2E8A0024094F3046E040C00703D0ED
:10095000396809B1204688473F1D641C102CF3D12B
:100960002E8001B0F0BDC04630610040D0090020AB
:1009700010B5C46F2068A4686469A04710BD00006A
:1009800010B590B1044600680A4988420FD10A4860
:100990000178A26FE36F127C891A01701868996858
:1009A000896988470021216010BD012010BD072002
:1009B00010BDC04643554F548C0C0020F0B58DB08F
:1009C0000C460546C16F086889688A680BA990477C
:1009D000BC49884200D172E1BB49884201D1084636
:1009E0006DE10194A86F0790077C002F099700D153
:1009F000BBE028462C300390E86F406840690A90BD
:100A0000002606200690334602950A98012823D135
:100A10007000AA69115A1418069A7243079B1B6842
:100A20009A5C52000BAB9B5A69B32A69125A51184F
:100A30000A0C15D199424BD2296A00220A52E9695F
:100A40000F1804970F5A039800788742059053D2E5
:100A50007F1C04990F805FE07000A9690A5A8AB16F
:100A6000E88D88B30893A868E9683246FFF7EAFD85
:100A7000C0070AD0B000696A00220A507000A96A53
:100A80000A5220E00C1823801EE07000AB6A1A5A4C
:100A9000511C05931952B2006B6A9C58089FBFB253
:100AA000E41904949C508FB2EC8DA7420AD30599A7
:100AB00009189A18049BB3FBF4F3AC692352002085
:100AC00010600880099F089B761CBE429DD14CE0B7
:100AD0006A69125A891A89B29942C1D91C46E969D0
:100AE00000220A522A6A115A039B5B7899421DD24E
:100AF0001018491C018024E0012000210092324698
:100B00000893FFF78FFD089BAA680243AA60009A2A
:100B1000E8680843E8600499288E059DA84203D937
:100B2000B84210D9781C0880029D1CE001200021E9
:100B30003246FFF777FDAA688243AA60E8688843D7
:100B4000E86023468CE70A80238001201146324664
:100B50001C46FFF767FD2346029DAA688243AA60F0
:100B6000E8688843E860099F7AE7A8680199086007
:100B7000E86848600798817E61B101290A4600D87B
:100B800001220020B44B1C882018521E9B1C002AF6
:100B9000F9D100E0002082B24C4B1B784C4CA3549E
:100BA000421C92B2A154E96F4968496908220A437C
:100BB000811C092A069389B219D10022625407992F
:100BC000C96949682C22895CC21C92B2A154061DD5
:100BD00071B30BA8B2B20388A354721C92B21B0A61
:100BE000A354491E801CB61C0029F3D120E0012229
:100BF00062540799C96949682C228A5C2C3149786A
:100C00005143C21C92B2A154C9B2061D81B1480021
:100C10000022114652000BAB9A5AB3B2E254120AA8
:100C2000731C9BB2E254B61C491C8AB29042F1D8A4
:100C3000D7B3B0B2294600252554701C80B2275482
:100C4000B61C88680890C86807900F46103798CF80
:100C50000A93089807992A46FFF7F4FC0A9B01219A
:100C60000140B0B21A4A1154701C80B23988115434
:100C7000B01C80B2090A1154F01C80B219881154BA
:100C8000301D80B2090A1154701D80B221881154A0
:100C9000B01D80B2090A1154A41C9B1CBF1C6D1C02
:100CA000F61D0998A842D3D1B0B20699084A11544A
:100CB000481C06490870701C80B2105C00200DB002
:100CC000F0BDC0467017000072170000F90C00203C
:100CD000A60C0020C185002070470000F0B58BB045
:100CE000074600686A4CA04201D10E20A2E00D46E2
:100CF000B9670E68002E00D180E038462C304E498E
:100D00000A78042A02970195009626D254004B4B8C
:100D10001B190A9395004A4E73190993494E3619C7
:100D2000494F3F19494B1B1949490919494D2C197C
:100D3000029D2C61019D029C616102998B61029967
:100D4000CF61029F3E62009E099979620A99B96259
:100D50002C7CA118384A117000E02C7C2B7D43704C
:100D6000EA7C0270288B3886E98AF9850321002BFA
:100D70000B4600D00023039102B10393904200D3AD
:100D8000039900B103919CB30A94331D3E697869BD
:100D90000890B969FD693C6A786A0990B86A1A884E
:100DA00006929F1E3A880592002204910A802A80AA
:100DB000228002803F88079637801F88089E3780F0
:100DC000069F0599B94201D203270397099F04C7DB
:100DD00009970A9A521EB61C0896079EB61C801CDC
:100DE000A41CAD1C0499891C9B1D0A92002AD6D113
:100DF0000398029F264C019D009B28B9EA69FA6777
:100E000007CA126890472B68E9694A682C21515C2F
:100E10004E00A97E4900104A565251182BB12A7C27
:100E200007235343F218961C0E80114A17603C604A
:100E3000721D0A800BB0F0BD8C0C0020800C0020CD
:100E4000740C00208E0C0020940C00209A0C0020C2
:100E5000860C0020A00C0020FA0C00200020704717
:100E600003490860C16F0868896849680847C04637
:100E7000CC0D002040B10168054A914206D1C16FF6
:100E800008688968C96808470120704707207047CB
:100E900043554F54F0B585B00C460546C16F086800
:100EA00089688A6803A990471F4988423AD01F4938
:100EB000884201D1084635E0A86F007C88B3400025
:100EC0000290E96F49684969002603AB0196204604
:100ED00003290FD001291FD103AA925BAF69BF5B21
:100EE000D21B019F16D42F69BF5BC488544394FB67
:100EF000F7F70EE0AA69925B5C881F883C1BA2187A
:100F00000446019F06D42C69A45BC788574397FB0E
:100F1000F4F70446226897531B1DB61C029AB2428E
:100F2000D6D1002005B0F0BD701700007217000088
:100F3000F0B584B00291866F327C62B302990B687F
:100F400004694069097A01913668B61C64210091F0
:100F500003923588029FF9886943BD88B1FBF5F19A
:100F6000218089B2019F7943009AB1FBF2F101809F
:100F7000198825884D43B5FBF2F1218089B2794368
:100F8000B1FBF2F1039A0180521E9B1C801CA41C31
:100F9000B61D002ADCD1002004B0F0BD10B5EFF37F
:100FA0001081012282F310884200174B98189B5A37
:100FB00043B9164B9A5A164B1C8814434AF20052F6
:100FC00022431A800288521C028081F3108810BDCF
:100FD00010B5EFF31081012282F3108840000A4B14
:100FE0001A181B5A13B113885B1E1380128842B95A
:100FF000064A105A064A13884AF200541C43844396
:10100000148081F3108810BD340B00202CC3000025
:10101000FEE30140F0B581B0054614480068144A6B
:10102000B2FBF0F64D4300242846214640F2E83258
:101030002346FFF7DFFA19B9B0FBF6F080080BE0A2
:101040000127B000B5FBF0F0214640F2E83223461C
:10105000FFF7D0FAB94202D210B901B0F0BDE043B7
:1010600001B0F0BC02BC8E4602F034B9800400200E
:1010700000CA9A3B022804D010B906480121017029
:10108000704702484168024801F01AB9A0C5000043
:101090002C0B002090C07E4010B58C2401518C3068
:1010A000C3600261002010BDB0B540B304460068C3
:1010B0001549884225D1A18A144A1078401AC3B232
:1010C0001380E26803231340012B04D1104A1378E4
:1010D000591AC9B211800025000628460CD1E06FCC
:1010E000816B08688968096A884728B9E06FC16B15
:1010F00008688968096A884725606560B0BD012075
:10110000B0BD0720B0BDC04655535443CC0A0020A3
:10111000EA0A0020F0B59DB00C4606464168DC485E
:10112000022900D100E17168032900D0E0E03069B4
:10113000012806D1F18CB28C8A4202D000D2511C17
:10114000B184716F06911391F1681691B18A0029EB
:10115000009400D1C7E00020BB4F03210791782104
:10116000049105460446059007990B904143099167
:101170008900F26A5158890ACBB213A98B800A946C
:10118000A1005118049843437833DA08069BDA40EB
:10119000059B38460CACE418CF5807405743E7602E
:1011A0001B1D0C2BF6D1F168092946D00129A64F49
:1011B00000D08CE0706B00242746316B4919C95B65
:1011C0004019C01913AA03F0A9F8706B4119C95B43
:1011D0000CAAD153D119CC80BF1C062FEDD1B08CF5
:1011E0000028994F73D00B984000B16B08180990F4
:1011F000008803900CA8014603F0D6F800201AA935
:101200000CAA125A04C1801C0628F9D11B991A98FD
:10121000441A17941C9A8B1A19930290831A1893E4
:101220000023002C02D5644217AFFC50082B1ED0BF
:1012300017ACE41864681B1DF3E709984000B26B13
:10124000145A0B994900336B595A101813AA099074
:1012500003F064F8B08C02287B4F38D3411E4C4316
:10126000099A11886118B1FBF0F010802FE0189BEB
:101270005800199C179F87420CDA07986043019128
:10128000C10F401801994010874203DA02984118B3
:10129000079807E0A34203DA02981118052001E03D
:1012A00051180620684F0CAA1076684A914200DB5C
:1012B0006649099B1980F16E0B9A8854B08C411EC7
:1012C000039A4A4319885118B1FBF0F01880AD1DFC
:1012D0000A9CE41CB18A0B98401C884200D243E768
:1012E0003069009C00E0002100B301207060684874
:1012F000B18CB1B1F068032101400022012912D163
:10130000B08A002810460FD0B06B00210B4602882F
:101310002280801C491CA41CB28A9142F7D3184633
:1013200002E0801C00E010461DB0F0BDF068022213
:101330000243032AD9D1002900D182E000221146BC
:101340000A9204920896F0690B46415C192963D011
:10135000039290B2079044000320059358430990EC
:1013600080B206900022F168012901D0A62000E099
:10137000A420305A4008012904D107998918736BB9
:101380001B1904E0069951184B00356CEB180B93B0
:10139000099B9D00F76A7D59AD0AEDB26D1C33467D
:1013A0000F266E435B6FDE406843C00880B20B9B24
:1013B0001B88181A90FBF6F589007B581846224EB8
:1013C0003040401906D4B04209DD0A98401C0A900A
:1013D000304611E00A98401C0A9000200CE045B10C
:1013E000089EF369059FDD5D6D1CDD55F76A7B582E
:1013F00003E00A9D6D1C0A95089E154D2B40034382
:101400007B50A41C521C032AADD10A9803280CD18E
:10141000F069009C039A059B1921C1540498401C53
:10142000049000200A90194602E0009C039A059956
:10143000D21CB08A491C814285D30499814200D0D4
:1014400053E70120306150E7FF030000FFFF000079
:1014500000FCFFFFB0B5024643680D48022B14D0D4
:1014600013699BB1D068032303400020012B0CD1EA
:10147000938A53B1936B002004460D881D809B1CFA
:10148000641C891C958AAC42F7D3B0BD801CB0BDEA
:10149000701700004068032801D000207047014801
:1014A0007047C04671170000F0B591B00268F64B66
:1014B0009A4202D10E2000F000FC0E462036034670
:1014C0005C334A6903240A920B942240012A0D904E
:1014D00023D1F54D2A88347B2746A418E4B2042C86
:1014E00000D3CEE103962C80C167002545600997A3
:1014F0008782EE4DAD18C5665500ED4E751906266E
:101500005643EC4A9219EC4FBE190D98066342639C
:10151000856308935C81099B05E008930396C16786
:1015200000224260037D024614320C92283005905E
:10153000E24A1788D819C3B2138000220D9882841A
:1015400008680D9CA060C88D0D9CE084DC48C5191E
:101550000D98C561039E307C0124079460400D9C6A
:1015600020610C207843D74C20180D9CE062B80015
:101570000D9FD54C2018386209930898C381034603
:101580000A9C092C01D107983861C8691860308815
:101590009880B0881881486878658868B865B078A0
:1015A0009871F078D871FC60A4010869C7073F0FF3
:1015B0003C190D9F059E3470022604460096344067
:1015C0000A9E7607F60FA4190E7E360134191C7791
:1015D000032803D88000BDA31858786738468030A8
:1015E00004900C980088C0B31346EA5498003C6AF3
:1015F00022504D698C6A092D05D0072D0FD10B980B
:101600005843FC6A19E0DD006419E5792D06A679D6
:10161000B6027519A4882C43FD6A2C5016E0D80038
:101620002018C47924068579AD022C1985882543B4
:101630000B9858438600FC6AA55180002018041DB1
:101640000025066866512D1D082DFAD15B1C0C98EB
:101650000088834201D2FD69C7E74C6C0691384689
:10166000A7009E49C8510B98C143204608400B462D
:1016700008919B494258A507EE0EFF250C95B540F1
:10168000AA4340250595B5401543455004990C6083
:101690000698806C48600698C06C8860914EB85976
:1016A00091490840B8511F210A9160090C400799DF
:1016B000A14080008D4A81508D4A81500698806CEF
:1016C000820086490D9C8C5005461D40844BE9588C
:1016D0008707FF0E0C9CBC40A143059CBC400C43FB
:1016E000EC509159804D2940915141090A9E30405A
:1016F000079F3A46824088007C4942507C494250CC
:101700000698C06C8100754A0D9B5350089B03409E
:10171000734A9A588407E40E0C9DA540AA43059D80
:10172000A540344615436E4A9D503D466D4E8A593C
:101730006D4B1A408A51410920403A468240880048
:101740006A4942506A4942500022049802740D9836
:10175000808A069F674B0999884200D0F8E0664C62
:1017600004202060654F664938461E4600F0A8FDFB
:101770000A202946FFF74EFC62482060384660493F
:1017800000F042FE384600F095FDEFF3108085F33F
:1017900010885D490A6808239A430A60096880F343
:1017A00010880D9FF86F846B616803C93246203240
:1017B00082600E900F9181780B9A11408170C178F0
:1017C0001140A831C170C581F96A41602068A168E3
:1017D0000A680EA9904790BB2068A168C96888472D
:1017E00068BBF86FC46B616803C90E900F91817874
:1017F000132211400B4608338370C37810251D4314
:101800002C232E469E43C6703A4EFB6B8360079B8B
:10181000C38115408035C570079D18220A43827028
:10182000314624314160396B81602068A1680A68C3
:101830000EA9904718B92068A168C9688847029026
:10184000306840F200418843306030682021014315
:1018500031602E4800682E4909684201520F9140BC
:101860004005400FC1402B48B1FBF0F02A4A91429D
:10187000069F33460AD8196843F200029143196063
:1018800062E00B9819E2C04655535443234A9142F3
:1018900046D8196843F20002914341F200028918C8
:1018A0001960400850E0C046EA0A0020CE0A002035
:1018B000E40A0020D20A0020EC0A0020CC0A002012
:1018C000080B0020A80A00200C0B002002000000DA
:1018D0000100000000000000030000004C0D00208B
:1018E00000E400E000630040FFFFFEFF80E200E054
:1018F00000E100E000200840AC000020000B0020C8
:10190000F8C400000000010C0470044020E0014015
:101910008004002040420F003F8AF7013FD2DF03DE
:101920001A681C46E94B994208D843F200018A43E1
:1019300042F2000151182160800804E043F20001E6
:101940000A432260C00823460A9C029A401ED870AF
:10195000786907283E4610D0186840F200210143FC
:101960001960186840F20011014319601E2001211E
:101970001746FFF74FFB3A46D34B02920D98A03023
:101980000190A9051868099108431860E8051968CD
:10199000014319605C71986ACD4908409862986A61
:1019A000059A90439862A8040A90CA4C7069CA4E7E
:1019B000CA49072800D120E12068002800D01CE196
:1019C0002560186844F2000101431960186848F264
:1019D0000001884318601868BA4908401860290453
:1019E00098680891084398609868BF4908409860D3
:1019F00098680A9A90439860E804996881439960CE
:101A00001868B84908401043186041F6004060600B
:101A100077683268F0211140D2B200230EAD38460B
:101A2000D8407F2606402E80C4B2000606D44F2937
:101A30000BD83F2C09D840F2002008E0A12A08D397
:101A4000C02C06D340F2001005E040F200108030B8
:101A500001E040F200200643B0012880AD1C0833AD
:101A6000202BDCD1079BF54AD36000261661906AD3
:101A7000802101439162974F0A375C040B9D022E2F
:101A800007D0012E0AD09EB910689849084010600E
:101A900014E0106895490840106005E040F280703D
:101AA000803011680143116010688F49084007E0D9
:101AB00040F280708030116801431160106820434B
:101AC0001060A8041168014311600D98394602F0B6
:101AD00087FCEF4A1068834908400A990843106060
:101AE000BF1C761C042ECAD150687C490840506047
:101AF000906A77490840906207988007916A01438D
:101B00009162744F203700261446206874490840BB
:101B10002060072E02D870011F300AE02807616894
:101B2000014361600798C006A16A0143A162700188
:101B30006138A08520680999084320600D983946CE
:101B400002F04EFCBF1C761C0C2EDED11320C043CD
:101B50000021604F3B464A000B92BA180C92528902
:101B6000624D813507465B4CE419E68E5F4C651982
:101B70008135BC1C17B196422746F4D9B21A40F2FF
:101B800080777A43534F3C19648E341B92FBF4F2F6
:101B9000044613345443621B92B20EAC0B9D645B3B
:101BA000089D2C1B44F600356C43B4FBF2F20C9CF0
:101BB000628292B240F280746243002538266D1C26
:101BC0002C465443E40B9C53B61C502EF7D11833CB
:101BD000491C0429BFD10E303E490A8B3E4E0B18DA
:101BE0001C8BE403B4FBF2F41C84801CF7D1009836
:101BF0000860079D059AA64B38491868394C204063
:101C00000A9C20431860586808402907014359601E
:101C1000E806996A81439962A807996A81439962A3
:101C20006807996A01439962986A8021884398629B
:101C3000986A10439862326859685F6858681C68EF
:101C4000274E34401C60CC0D60210C40120CD2B2E7
:101C5000141B2E4643F6007525439D85FD0D0D4052
:101C600037245443A409651B43F200642C43DC85EC
:101C7000C00D0840492151438909081A44F6000162
:101C800001431986186809990843186000200D99C6
:101C90000883104A0A65C8824E60049A9061019BCD
:101CA00058801870064808600699486BD060086D27
:101CB000D0610398806B5860029811B0F0BDC046A7
:101CC00055535443FFFFFEFF002008403F62B0071A
:101CD000FFFFFFDF100A0020A4C37E40FFFFFFCFFD
:101CE000FFFFBFFFFFFFF3FFFFFFFDFFFFF7FFFF5A
:101CF000F0B581B004468168B14839B964490A78C1
:101D0000920703D40978C90700D094E061680329D9
:101D100001D1401C8FE02046803001688900484A8C
:101D20005450416889005450806880001450204607
:101D300002F000FC00287ED1A2685548017832B13B
:101D400006221143017001780122914301E0F9223A
:101D500011400170E168112965D0212963D0224624
:101D6000283221465C31636DA56DAD01DB012B434B
:101D700006783F252E40F3180370437837261E401F
:101D80001278C82313409A1942708278CC231340EA
:101D90000A7F33261640F218827001221304E76886
:101DA000284E092F17D14571950707682F43076003
:101DB000751C06682E43066085681D4385605304C4
:101DC00085689D438560930485689D438560D30441
:101DD00082689A4312E01F25457195070768AF4353
:101DE000076005683540056085681D4385605304BC
:101DF00085681D438560930482681A4382600A786F
:101E000002734A7842738A788273CA78C2730A79F5
:101E100002744A7902758A794275CA7982750A7A9A
:101E2000C275497A01760221616061600178012200
:101E30000A430270002001B0F0BDC04600200840F7
:101E40004C0D0020FFFFFF7F10B5416802291DD116
:101E50000F490A68112353400B60C16F496C8A0017
:101E6000F14953580B4C23405350C26F926C92006F
:101E7000535823405350C26FD26C920053582340A2
:101E8000535000210183C18201214160002010BD17
:101E900000200840FFFFFEFFF0B58FB00C4606465D
:101EA0004168474802291DD03169D1B10020022A7A
:101EB0001AD0012A29D0AAB9F168012912D1B18A10
:101EC00081B1316B002002460346CD5AE5529B1C7E
:101ED000062BFAD1E418891D521CB38A9A42F3D317
:101EE00000E0801C0FB0F0BDF1680129FAD1B18A81
:101EF0000029F7D0F16E002002468B5C2380521C33
:101F0000A41CB38A9A42F8D3ECE7F1680129E9D11D
:101F1000B18A0029E6D0756B002703200290782053
:101F20000190062000903B463A460396069507949A
:101F30001946029B0592534358002C18A58808AAFD
:101F40009580069A105A049462881204101808901A
:101F500006918800F26A10189B00D258920AD2B2F9
:101F6000019B5A437832D208736FDA403B46009D9A
:101F70003C46144908AF7C53FF18C6580E405643E0
:101F8000FE601B1DAD1C0C2DF4D1274608A804993A
:101F900002F00AFA069B5800039E756B2918002070
:101FA000079C0A5A2252801C0628FAD12418DB1CEE
:101FB000059A521CB18A00208A42B7D392E7C046E4
:101FC00070170000FF03000010B541688900B44A93
:101FD0008B5801242406A3438B5041688A00704B20
:101FE000002199500160084610BDC046406880003D
:101FF000AB49425801231B069A43425000207047C8
:1020000040688000A649425801231B0613434350F1
:102010000020704700220A604A6040688000604AE1
:102020001058C278402A05D2012212048A60C08961
:10203000C8600FE040F200128A60C289D2B2CA6062
:10204000C278C0231340802B04D1012212040A60FD
:102050008089486000207047F0B581B00D46044685
:1020600017480178A9B901270770EFF3108087F3AB
:102070001088B905134A13688B431360116880F305
:102080001088474E80213046FEF711FB0E4806604F
:10209000077268680068002805D48100404A5158DA
:1020A00019B1082009E00B2007E06060296820468C
:1020B00005F0CAFB05482060002001B0F0BDC04615
:1020C000040F00201CE0014004540040004354442D
:1020D00070B5044640688000714D425901231E06C8
:1020E000B24342516068800040592B4A024048F296
:1020F00000001018064A13889842FCD0204605F0CC
:10210000A3FB60688000295831432950002070BD2E
:102110000E540040F0B582B00191009241688C00ED
:102120005F49655801221206954365504468A40032
:102130006458194D254048F200042D19174CE689C2
:10214000B542FCD008252570019D2DB14568AD0034
:10215000134E7559019E6E60009D35B14568AE0005
:102160000F4FBE59009FB76000E04568AD000C4EB0
:102170007559EE78B60903D0022E02D1AB8100E08A
:10218000EB8118232370406880000B5813430B50D9
:10219000002002B0F0BDC046FF0100000054004026
:1021A000000400200620704706207047416800297F
:1021B00010D41F220A4001239340490989000F4A85
:1021C0008B50BFF34F8FBFF36F8F41688900364A42
:1021D00000235350002101600846704740681F21CA
:1021E000014001228A404009800004494250BFF367
:1021F0004F8FBFF36F8F00207047C04680E100E033
:10220000B0B540688100264A8B5801242504AB43B1
:102210008B501F2101408C404009800003494450ED
:10222000034944500020B0BD0063004080E200E05C
:1022300000E100E070B54A6842609400184AA35873
:102240000025A5504C69C4608C6904610C78047247
:10225000144EA5550C7CE4010D7B2D0125430C7A11
:102260002C43057AAC554468A400A3504268002A68
:1022700011D493000C4CE050032394079A430B4B6A
:10228000D558E40EFF26A640B54349788901C9B266
:10229000A1402943D15006490160002070BDC046CD
:1022A00000630040006000404C0D002000E400E0AE
:1022B00055434900002101600846704706207047D9
:1022C00080B5034A0260084605F008FB002080BD87
:1022D00054524F50F0B581B0EFF31084012787F3CB
:1022E00010881B48056825B91A4D00262E70402617
:1022F0002E7005686D1C056084F31088CCB2090A45
:10230000D503384B0BD58E019E190097A700F559C0
:10231000EA4B1D40F5511340F351324B009F8901A8
:102320005918A300CA50EFF3108187F31088026890
:1023300012B10268521E0260006820B905480022EE
:1023400002708022027081F31088002001B0F0BD7D
:102350003C0B0020030D0440C80841F6E073034025
:1023600047481858C043000CC9B2C8400121014079
:1023700048424841106000207047C046B0B5C8B21E
:10238000012484400023012A204600D01846012A57
:1023900000D02346C90841F6E0740C40324D615923
:1023A0006419012A04D11A04074BD21883B203E03E
:1023B000044A10431B0402461943114021600020C7
:1023C000B0BDC0460000FFFFFFFF0000C8B28000A4
:1023D000090A89010818034940588007C00F106096
:1023E0000020704700080440CBB2012098400AB199
:1023F00080B200E00004C90841F6E0720A402849B2
:10240000505000207047C04680B5084605F066FA77
:10241000002080BDB0B5D8431340C90841F6E07430
:102420000C40044965581D4310432840605000206B
:10243000B0BDC04600000440C80841F6E07101404C
:102440000F480858000C10800020704718461040B4
:1024500093431A041018C90841F6E0720A40024971
:10246000505000207047C0460C000440C80841F698
:10247000E071014002480858108000207047C046B3
:10248000040004401846104093431A041018C90869
:1024900041F6E0720A400249505000207047C046A1
:1024A00008000440F0B585B00E460446807803214C
:1024B00003918843411C3278B36BF76BA170002500
:1024C00025705101794A8918E66122462032AAC254
:1024D00037462037716811B902210843A070F26AAB
:1024E000397A204605F054FA7269317C204605F0AD
:1024F0004FFAF269317E204605F04AFA726A39785D
:10250000204605F045FAEFF31081012080F3108892
:102510003278C307D340664A17689F431760126832
:1025200081F31088216A8D70216A0D71216A4D72C4
:10253000216A8D72216ACD72216A4D8331780490AF
:1025400002468A405B490A42284602D0216A40225C
:10255000CA74216A06220A77317819B9216A4FF6BE
:1025600000028A827368B168F2680F01D1003943B2
:102570002BB1F222032B03D14023194300E0E222C6
:10258000236A1970216A8A71226A316C0B7EDB071B
:102590009B0F53734A688B68276A3872D207120EF2
:1025A000DB079B0E9A180B68049DAB43022B0AD1E4
:1025B000236AFF275F700968022901D110210A43AD
:1025C000216ACA7117E0236ADA71226AC9688B78B6
:1025D00053704B78039D2B401578FC272F40FB1838
:1025E0001370CB789374D379A3271F4009785C23A9
:1025F0000B40D919D171E06020616061A061316C3C
:10260000029109780091E16949698E002A4BF758D7
:102610002A4A1740F7501F264F0931400190049D68
:1026200028468840B900264A8850264A8850E069E2
:10263000C06A8100CF58214A1740CF501A4641093D
:1026400030402F46874088001D4947501D4947505C
:10265000E069C0698100CF58184B1F408F50410975
:1026600030402F468740880015494750154947504C
:10267000E069406A81008F58104B1F408F50064020
:10268000B540400980000E4945500E494550039819
:10269000009901407031206A81700B486060029897
:1026A0004069A060019805B0F0BDC0460000074039
:1026B000007004400F02000000630040FFFFFEFFB7
:1026C00080E200E000E100E05549435300F020F8CB
:1026D000FEF72CF9FEE780B506F03AFB08F082FF22
:1026E00080BC01BC864606F051BB000005488179DC
:1026F0008900054A515800684001400FC140034815
:102700000160704720E001406C120020800400202E
:1027100070B582B036483749016000252846FEF77B
:10272000A9FC00F061FD01AE35700198012420463E
:10273000FEF734FCEFF3108284F3108821072E4853
:1027400003688B430360036882F310882B4A136885
:102750002340337013682340337012682240327074
:10276000EFF3108284F3108803680B430360006862
:1027700082F310882046FEF72BFC2046FEF77AFCF9
:102780001F4885804AF2005101801E4981601E4A1F
:102790008918C1601D4941F200020A8084801C48EA
:1027A0001C49FDF784FF1C481C491D4AFDF766FFC4
:1027B0001C4D1D48401BC117890F40188610012E63
:1027C00007DB00DC2646174C01CD00198047761E3A
:1027D000FAD1FFF78BFF0220FEF74CFC00F056FD0C
:1027E000002002B070BC02BC8E4600F04DBDC04659
:1027F00008ED00E000000000047004400008044000
:10280000000D004080120020000400002061004004
:1028100080040020EC0D00000000002000E000001B
:1028200080040000000500000005000018B1C1B2DE
:1028300019B1012011E0002070474FF600710140EE
:1028400002D0090A092008E0FF210904014002D052
:10285000090C112001E0010E1920024A515C4018B8
:102860007047C04610C2000070B5022804DC70BC7E
:1028700001BC864600F02AB90C4605464E6859A0B0
:102880003146FDF747FFE0B157A03146FDF742FF63
:1028900028B357A03146FDF73DFF60B356A031463F
:1028A000FDF738FF0028E2D1032DE0DDA06804F039
:1028B00077FD0146A068002961D0FDF77DFF054640
:1028C00062E0A06800F0DCF8A168002800D57CE098
:1028D000024668A070BC08BC9E4606F06DBA032D87
:1028E000C5DDA06804F05CFD0146A06801B3FDF7FA
:1028F00063FF054621E0A06804F052FD0146A06890
:1029000019B1FDF759FF054604E000F0B9F8054696
:10291000002859D4284606F061FF012801D142A0C1
:1029200000E03DA0294670BC04BC964606F044BABF
:1029300000F0A6F80546002846D4E4683EA02146EB
:10294000FDF7E8FEB8B13EA02146FDF7E3FEA0B1D9
:102950003DA02146FDF7DEFED8B33FA02146FDF79E
:10296000D9FEC0B340A02146FDF7D4FE002800D018
:102970007DE7042130E000212EE001212CE000F071
:102980007FF8054600281FD4E6681DA03146FDF7F4
:10299000C1FE012488B11CA03146FDF7BBFE60B129
:1029A0001AA03146FDF7B6FE002430B118A031461A
:1029B000FDF7B0FE002800D059E72846214670BC3C
:1029C00004BC964606F026BFA168124806F0F4F94A
:1029D0004DE7022100E00321284670BC04BC964666
:1029E00006F0DCBE6E756D006D6F64650000000062
:1029F0007265616400000000777269746500000010
:102A000068696768000000006F6E00006C6F7700F7
:102A10006F66660059CC000070696E5B25645D20AE
:102A20003D206F66660A000070696E5B25645D205C
:102A30003D206F6E0A0000006F75747075740000A1
:102A4000696E707574000000696E7075745F7075E2
:102A50006C6C757000000000696E7075745F707545
:102A60006C6C646F776E00006F75747075745F6F57
:102A7000640000002573203A2025640A000000004D
:102A8000B0B582B004466D46002068712871E870C8
:102A9000A8702078FDF7ECFD28706078FDF7E8FD60
:102AA00068702046FDF72FFEA1782E2902D06946D6
:102AB0002E228A70A11C052800DB0520821E684694
:102AC000FDF743FE06F01CFE02B0B0BD80B50DA0C0
:102AD00006F072F90F4806F06FF90FA006F06CF9D6
:102AE0001DA006F069F9244806F066F9234806F0AF
:102AF00063F9234806F060F922A080BC02BC8E4630
:102B000006F05AB970696E205B6F7074696F6E5D04
:102B10000A00000018CD0000202020206E756D20D6
:102B200063616E20626520504530322C2050453262
:102B30002C2050452E30322C2050452E322C207027
:102B40006530322C207065322C2070652E30322C8E
:102B50002070652E320A000020202020652E672E6E
:102B6000204D5348203E70696E206E756D20504197
:102B70002E31360A0000000041CD000072CC00006A
:102B8000B7CC0000202068656C703A2074686973C7
:102B90002068656C70206C6973740A0070B5154606
:102BA000044620B9084809A1372205F0E3FA0026B7
:102BB00035B16A882988606C03682046984700E030
:102BC000F643304670BDC046B1CD00005F70696EFF
:102BD0005F636F6E74726F6C0000000070B51E460C
:102BE0001446054620B9084808A1162205F0C2FA85
:102BF000002044B1042E06D12188686C82682846E2
:102C000090476080042070BDB1CD00005F70696E98
:102C10005F7265616400000070B51E46154604468B
:102C200020B9084808A1262205F0A4FA002045B1E1
:102C3000042E06D16A882988606C4368204698472C
:102C4000042070BDB1CD00005F70696E5F7772695E
:102C500074650000F0B581B01C461546064628B9DB
:102C60002A482B4940F28E1205F084FA7CB306B153
:102C700035B940F28E10421D2648254905F07AFAF2
:102C8000776D708BC00431D500954D20305C354692
:102C90004D35697809020818A97809044018800898
:102CA00080B2A04215D21CA006F086F82878697878
:102CB00009020818A97809044018800883B2194845
:102CC0003146224606F078F8174806F075F80020DD
:102CD00019E0384606F0F4FDA042009D06D23C8380
:102CE00038460C300021C94305F0DEFAFDF712FC2E
:102CF0000646A2B23846294606F0FAFD044630469A
:102D0000FDF70CFC204601B0F0BDC04644CE0000EB
:102D100050CF0000E1CD00005B572F554152545D6C
:102D200020000000BECE000010D00000F0B587B03B
:102D300007460020002B59D01C461546069040F24D
:102D4000F71617B105976DB907E09D48284940F27D
:102D5000F71205F00FFA00200590B21C67482449CD
:102D600005F008FA40F2F711B86D064620B94A1D81
:102D70003D481F4905F0FEF908F02EFB80B3788B23
:102D800040062DD43069012806982FD03146012005
:102D900030613046143004900026F04303900094D4
:102DA000069525460297019106988119AAB2019CC1
:102DB000204606F007FE0746E0608619069881194E
:102DC0000298406C046905983A4644F20003A04713
:102DD0000498039905F068FAED1BE5D1009805E029
:102DE00038462A46234600F0BBF8204607B0F0BD1F
:102DF00067CE0000F0B581B01C461546064628B9DE
:102E00006F48184940F2CA1205F0B4F9002734B3EC
:102E100006B135B940F2CA10021D3848114905F013
:102E2000A9F90095B56D35B940F2CA10821D0E485A
:102E30000C4905F09FF92869012810D0012028616C
:102E4000706C076930460099224644F20003B84787
:102E500014350020C143284605F026FA2746384697
:102E600001B0F0BD84CE000031CE0000F0B583B0DB
:102E70001E461546044620B951481E491E4A05F013
:102E800079F9C6B104B12DB91B48021D1B48194977
:102E900005F070F9A76DFDF73DFB0190386960B151
:102EA000B2B23846294606F08DFD04460198FDF77A
:102EB00035FB20461CE000201AE001203861B2B248
:102EC0003846294606F07EFD05460198FDF726FBAB
:102ED0000020029002A9384607F0C8F90246F860BF
:102EE000606C06690299204648F20003B047284604
:102EF00003B0F0BDA2CE000031020000E1CD000021
:102F0000F0B583B01F461546064668B92C48134CE9
:102F1000214640F2341205F02DF940F23410C21C63
:102F20002948214605F026F9002001904024029707
:102F300077B1706CC16830468847411C09D0287051
:102F40007F1E6D1C0A28F3D1708B2040F0D000E06A
:102F5000019F0298C01B03B0F0BDC04640CF0000E7
:102F6000F0B581B01546064678B91548154F394673
:102F700040F261121C4605F0FDF840F26110C21CDF
:102F80001148394605F0F6F823460093ABB10D27FA
:102F9000009C708B400607D528780A2804D1706CF5
:102FA00082683046394690472978706C826830468E
:102FB0009047641E6D1C002CEBD1009801B0F0BD51
:102FC00044CE000060CF00000CCE0000B0B50D482C
:102FD0000468FDF79FFA0546204606F08FFE20465E
:102FE0004C3008F033FC342004212154204608F0F2
:102FF0004BF82846FDF792FAB0BC01BC864606F0B5
:1030000067BDC046100F0020F0B583B00446089D90
:10301000064620362EC614306061A0612321184672
:103020002A4605F09BFF234620330FCBD218121FF0
:10303000164B05F009FEE061254634350A9E099FCE
:10304000202F04D312A01BA1BD2205F093F800206D
:10305000A063E0636F7028736664A66420632870C1
:10306000A067E0670090019020464C30154A214649
:10307000234608F03BFC1448016829B1204603B000
:10308000F0BC04BC9646084703B0F0BDCD2F00004D
:103090007072696F72697479203C2052545F544891
:1030A000524541445F5052494F524954595F4D4136
:1030B000580000005F7468726561645F696E6974CE
:1030C00000000000CD300000D00F0020B0B5044655
:1030D00020B91A481A49862205F04CF83420205CA1
:1030E00007210140022904D016A01549872205F0C6
:1030F00041F8204606F046FA012804D0204810493D
:10310000882205F037F8FDF705FA05466069A169E0
:103110004160A16908600120C0432063204614304B
:103120006061A061204606F0A5FD2846FDF7F6F98E
:10313000B0BC01BC864606F0CBBCC0460DDA000030
:10314000E9DA0000287468726561642D3E73746169
:103150007420262052545F5448524541445F5354D2
:1031600041545F4D41534B29203D3D2052545F5403
:1031700048524541445F53555350454E440000006A
:103180001FDA000070B50D4606460024FDF7C2F9AF
:103190003168B14202D04969296000E0E443FDF79B
:1031A000BDF9204670BD000082B00D4C0D4D01A947
:1031B0002046FFF7E7FF30B108F00EF908F098F964
:1031C00006F086FC08E008F009FA0199081AA842FE
:1031D00002D8019007F064FF07F074FDE7E7C046EE
:1031E00000050020FEFFFF7FF0B581B01D48C01C28
:1031F0001D4908801D4E002448F200001C491D4A4C
:1032000032607160B060F46034611B4804711B4D22
:10321000A8798000305829684901490FC8401849E9
:103220000860184801270770204600F03DF8AC758B
:103230004AF20050297FC907FCD06F740E4B1F70F3
:10324000AC7140F200112960A979890071582A688F
:103250005201520FD1400A4A1160034908801F7180
:1032600001B0F0BD00A5FFFFFEE301406C1200209D
:1032700000127A00006CDC02C4FF7E4020E00140B6
:103280008004002080E401407047000000200449D1
:10329000044A0B588350001D8028FAD17047C0465D
:1032A00020C500000063004008490A7882420CD023
:1032B000074A137813B99379DB07FCD00A78D20652
:1032C000FCD408700878C006FCD47047A0E0014028
:1032D00036E0014001380028FCD17047F0B597B0C6
:1032E00005461A4C00222046294601F04BFA0028D8
:1032F00025D400255126502701208006019002A8E0
:103300002946324605F02AFE2069C3685BB102A94E
:1033100020463A469847002801D404D108E0606965
:1033200001990843606102A90AA005F045FDE6E79E
:10333000074805F041FD054801F0E8F903E006A063
:10334000294605F039FD17B0F0BDC046B008002091
:1033500010D00000257300004F70656E202573208B
:103360006661696C65640A00B0B540B30546FDF757
:10337000CAF940F2001188421AD800242046294692
:1033800001F0D4FDA0B1054601F026FC284604F06A
:1033900048F8F8B100F054F81248294640F20012FB
:1033A000FDF7A4F9284605F029FA01F075FE0FE0B3
:1033B0001A20C443204607F039F91A3408E001F016
:1033C0000BFC09A0074905F0F7FC01F065FE00249D
:1033D0002046B0BD284605F011FA01F05DFE1A2026
:1033E000C443EAE7E400002025730A0080B502A088
:1033F00005F0E2FC002080BD1B5B324A1B5B4800ED
:10340000B0B501F019FF68B1044601F07FF9054637
:10341000204602F009F8002D0AD4204602F004F8F4
:1034200000240BE00F20C443204607F0FFF804E01F
:10343000284607F0FBF80F20C4430F342046B0BDE8
:10344000F0B581B00546006801F0F6FE07460F2092
:10345000C443264687B1384601F058F90646384637
:1034600001F0E2FF384601F0DFFF284605F0C6F91B
:10347000002E01D4002403E0304607F0D7F80F34C3
:10348000204601B0F0BD0000B0B5012806D109A06A
:1034900005F092FC0DA005F08FFC08E0022806DB89
:1034A0000C1D451E01CCFFF719FF6D1EFAD100203F
:1034B000B0BDC04655736167653A20636174205B97
:1034C00046494C455D2E2E2E0A000000436F6E6368
:1034D0006174656E6174652046494C452873290AFC
:1034E0000000000010B5022804D001280BD150487C
:1034F000F54906E00C464868FFF736FF18B16168E9
:1035000002A005F059FC002010BDC0464E6F20738C
:10351000756368206469726563746F72793A2025F7
:10352000730A000080B5032804D14868896800F058
:1035300029FD05E003A005F03FFC08A005F03CFCD8
:10354000002080BD55736167653A20637020534F3A
:103550005552434520444553540A0000436F707947
:1035600020534F5552434520746F20444553542EE9
:103570000A00000010B502280CD14C680BA12046AF
:10358000FDF7C8F850B10BA12046FDF7C3F828B1EC
:10359000204600E004A001F037F802E006A005F0A4
:1035A0000BFC002010BDC0462F0000002D2D6865CB
:1035B0006C7000002D6800006466205B70617468A8
:1035C0005D0A0000B0B50C46032804D0022817D1CC
:1035D000616817481AE0A0680E49002203F0FEFE59
:1035E000002811D4054664682046FDF78CF8024691
:1035F0002846214608F091FD2846FFF701FF07E025
:103600000CA005F0D9FB03E0A16803A005F0D4FBF2
:103610000020B0BD420400006F70656E2066696CCA
:10362000653A2573206661696C6564210A000000B3
:10363000ACD0000055736167653A206563686F2000
:1036400022737472696E6722205B66696C656E61B5
:103650006D655D0A0000000010B584B0002403947D
:103660000294019403A802A901AA05F03FFC039962
:1036700009A005F0A1FB02990BA005F09DFB0199A3
:103680000DA005F099FB02980399091A0EA005F008
:1036900093FB204604B010BD746F74616C20202031
:1036A000203A2025640A00007573656420202020DC
:1036B000203A2025640A00006D6178696D756D20DF
:1036C000203A2025640A0000617661696C61626CB1
:1036D000653A2025640A000010B502283CD14C68E8
:1036E0003F492046FDF716F800285AD03D492046AC
:1036F000FDF710F8002857D03BA12046FDF70AF847
:10370000002854D039492046FDF704F8002851D04C
:1037100037492046FCF7FEFF00284ED035492046A9
:10372000FCF7F8FF00284BD033492046FCF7F2FFA6
:10373000002848D031492046FCF7ECFF002845D04E
:103740002F492046FCF7E6FF002842D02DA1204655
:10375000FCF7E0FF00283FD02B4805F02DFB2BA005
:1037600005F02AFB2C4805F027FB2C4805F024FB2C
:103770002B4805F021FB2B4805F01EFB2A4805F0DD
:103780001BFB2A4805F018FB29A005F015FB31A00A
:1037900005F012FB38A005F00FFB3EA005F00CFB76
:1037A0001CE003F053F819E003F01CF916E002F0F6
:1037B000A1FF13E002F054FB10E002F007FF0DE060
:1037C00002F0E0FC0AE002F055FE07E002F094FD92
:1037D00004E002F0B1FA01E002F0F0FB002010BDBD
:1037E000A4D1000012D3000073656D004AD300001D
:1037F00050D3000056D30000F8D200000AD30000D6
:10380000ECD20000666400002FD000005B6F707483
:10381000696F6E735D3A0A00B0D00000E6D0000018
:10382000CBD0000018D10000FFD0000031D1000043
:10383000202020206D73677175657565202D206CC3
:10384000697374206D657373616765207175657543
:1038500065730A00202020206D656D706F6F6C20ED
:103860002D206C697374206D656D6F727920706F97
:103870006F6C730A000000002020202064657669C8
:103880006365202D206C69737420646576696365B7
:10389000730A0000202020206664202D206C6973AC
:1038A000742066696C652064657363726970746FF7
:1038B00072730A0080B5012801D1D94800E0486838
:1038C00003F04AF9002080BDE400002080B5012803
:1038D00006D106A005F070FA0DA005F06DFA03E020
:1038E0004868002103F020FA002080BD557361670D
:1038F000653A206D6B646972205B4F5054494F4E9E
:103900005D204449524543544F52590A000000007B
:10391000437265617465207468652044495245436B
:10392000544F52592C206966207468657920646F61
:10393000206E6F7420616C726561647920657869AE
:1039400073742E0A0000000010B50C46022809D03E
:10395000042813D160680DA1FCF7DCFE88B9A068CB
:10396000032101E008A001218900615801F054F908
:1039700038B1014606A005F01FFA02E00AA005F0E2
:103980001BFA002010BDC046656C6D002D74000050
:103990006D6B6673206661696C65642C207265735B
:1039A000756C743D25640A0055736167653A206D36
:1039B0006B6673205B2D7420747970655D2064657F
:1039C000766963650A000000F0B581B004281AD05A
:1039D00001282ED128A005F0EFF92FA005F0ECF971
:1039E000354E374640370024BE422BD233A573688C
:1039F0002BB13268B0680168284605F0DDF9103651
:103A0000BE42F4D31EE00F1DE0CF10A029463A4677
:103A1000334605F0D1F900240094284631463A4651
:103A2000234601F08FF950B1114805F0C5F9E44380
:103A300008E0274805F0C0F90020C44302E00D4823
:103A400005F0BAF9204601B0F0BDC0466D6F756E45
:103A500074206465766963652025732825732920A1
:103A60006F6E746F202573202E2E2E200000000014
:103A700068D300005ED3000066696C657379737467
:103A8000656D202064657669636520206D6F756EB5
:103A900074706F696E740A002D2D2D2D2D2D2D2D16
:103AA0002D2D20202D2D2D2D2D2D20202D2D2D2D7A
:103AB0002D2D2D2D2D2D0A00E4080020252D31302F
:103AC000732020252D36732020252D730A00000039
:103AD000B0D30000F0B581B0032821D10C4649686D
:103AE000A2683FA005F068F9A0680121090400253B
:103AF0002A4603F073FC00281AD4FFF781FC40F239
:103B0000001005F081F9D8B3064667683846FCF71F
:103B1000FAFD08B3395C2F291ED0401EFAD11CE0F3
:103B20001BA005F049F920A005F046F900272CE07C
:103B3000A068002739463A4603F050FC002804D418
:103B4000FFF75EFCA06808F0A3FA6068A66831463B
:103B500004F0B0FA66B918E03F18A3680097FF2197
:103B6000224A304607F0A0F86068314604F0A2FA15
:103B7000A068864202D0304604F040FE2F4604E0A2
:103B80001BA005F019F90420C743384601B0F0BD69
:103B900055736167653A206D7620534F5552434502
:103BA00020444553540A000052656E616D652053F0
:103BB0004F5552434520746F20444553542C206F79
:103BC00072206D6F766520534F55524345287329F7
:103BD00020746F204449524543544F52592E0A00D5
:103BE0002573203D3E2025730A0000003ED40000CE
:103BF0006F7574206F66206D656D6F72790A0000B5
:103C000080B502F023FE002080BD000080B503488F
:103C1000034905F0D1F8002080BDC046ACD00000BB
:103C2000E4000020F0B593B0012806D1514805F01A
:103C3000C3F851A005F0C0F85EE04A68137800248C
:103C40002D2B19D1091D521C00242D26254627464F
:103C50001346F2B2712A05DC2D2A0AD0662A0ED14B
:103C6000012406E0722A03D0762A41D1012700E020
:103C700001255A1C1E78EBE72546029402E0BABBE8
:103C80000297401E022837DB0F1D461E02980006D1
:103C90000190386803A908F0C9F920B1200623D1A2
:103CA000396817A01EE003A8C08841040AD40004A4
:103CB0001AD5386808F0ECF980B1200614D13968BB
:103CC00024480FE03B6835B1E1B20298C2B2184611
:103CD00001F02CFA08E016A0194603E0019818B18B
:103CE00039681D4805F068F83F1D761ED1D103E004
:103CF0001AA0114605F060F8002013B0F0BDC046D0
:103D000063616E6E6F742072656D6F766520272516
:103D100073273A204E6F20737563682066696C655F
:103D2000206F72206469726563746F72790A000093
:103D300063616E6E6F742072656D6F7665202725E6
:103D400073273A2049732061206469726563746F38
:103D500072790A007FD3000071D300004572726F40
:103D6000723A20426164206F7074696F6E3A202548
:103D7000630A000093D3000052656D6F76652028BA
:103D8000756E6C696E6B29207468652046494C45D8
:103D90002873292E0A000000F0B583B00C4602A952
:103DA00000260E7001280ADD211D022802D10A25F5
:103DB0000C461AE008683FA1FCF7ACFC30B13E4865
:103DC00004F0FAFF0020C04303B0F0BDA068017802
:103DD0002B2905D1401CFCF7EFFC0646002503E02B
:103DE000FCF7EAFC054600260C342068002739461B
:103DF00003F0F4FA00282DD40446019502A9012508
:103E00002A4604F0F7F8012810DB0027284607B1FE
:103E1000384602A90A780A2A01D0074600E0471C62
:103E200020462A4604F0E6F80028EFDC23A03946B5
:103E300004F0C2FF26B1B74205D3B81B401C019065
:103E4000019DAF4208D2244804F0B6FF2046FFF798
:103E5000D7FAB7E72BA0B3E720A0294604F0ACFFC0
:103E60000021204600910A4602F018FF02A9012213
:103E7000204604F0BFF8012814DB7F1B0026012533
:103E8000BE4204D302A801781CA004F095FF02A949
:103E900008780A2800D1761C20462A4604F0AAF8A1
:103EA0000028EDDC16A004F087FF2046FFF7A8FAF3
:103EB000009889E72D6E0000DED300000A546F746D
:103EC000616C204E756D626572206F66206C696E44
:103ED00065733A25640A000003D4000052657175C9
:103EE00069726564204E756D626572206F66206C24
:103EF000696E65733A25640A0000000025630000BE
:103F00000A00000046696C6520646F65736E277453
:103F10002065786973740A0010B502280CD14C68CA
:103F200012A0214604F048FF204601F0B9F80146EE
:103F3000002805D4124804E00020C44303A001E097
:103F40000E48CC1704F038FF204610BD557361674A
:103F5000653A20756E6D6F756E74203C6D6F756E71
:103F600074706F696E743E2E0A000000756E6D6F7E
:103F7000756E74202573202E2E2E200068D300002D
:103F80005ED30000F0B591B00091044601A900F0A5
:103F9000B5FC00280AD401A9C8884FF200073840B0
:103FA00044F20005A84206D0022605E03CA02146C6
:103FB00004F002FF59E00126009800F09FFC002861
:103FC00007D401A8C0883840A84201D1361D00E0BE
:103FD000083609203040092803D126A004F0ECFE61
:103FE00043E004203040B10706D458B93007800FB1
:103FF00032D02046009936E0C0B92046009900F042
:1040000009F932E02F212046FCF7CBFB214600B115
:10401000411C009800F08AFFE0B10546002102F043
:1040200083FE2046294600F047F80FE02F21204666
:10403000FCF7B7FB214600B1411C009800F076FF69
:1040400040B105462046294600F0E4F8284604F031
:10405000D5FB0AE00648C1E70021009D284602F092
:1040600063FE2046294600F027F811B0F0BDC04697
:1040700003D000006370206661696C642C2063705B
:104080002064697220746F2066696C6520697320F2
:104090006E6F74207065726D6974746564210A00B6
:1040A000636F7079206661696C65642C206261645D
:1040B0002025730A00000000F0B5DFB00F4605466A
:1040C0000120020405A8294600F05CFB002875D4F5
:1040D0001EA8002140F2041204F040FF05A8408809
:1040E00002287AD11EA8061D3EA4032003900020BA
:1040F000049040200290019500970998C369002B15
:104100006BD005A81EA940F204129847012864DB71
:1041100030462146039AFCF70BFB002843D0307849
:104120007178090208182E283DD02846314600F043
:10413000FDFE002847D004463846314600F0F6FE22
:10414000002844D007460EAD28460499029A04F090
:1041500005FF2046294600F0D1FB28B122A03146B8
:1041600004F02AFE019D1CE00EA8C0884FF2000159
:10417000084044F20001884208D10021384602F08C
:10418000D3FD20463946FFF797FF03E02046394626
:1041900000F040F8019D204604F030FB384604F062
:1041A0002DFB009F0FA41EA8049940F2041204F0F6
:1041B000D5FE05A8408802289FD00EE011A0294610
:1041C00004F0FAFD0CE00E4804F0F6FD05E00C48A2
:1041D00004F0F2FD204604F011FB05A800F096FA69
:1041E0005FB0F0BD2E2E00006F70656E2066696CAA
:1041F000653A202573206661696C65640A000000D9
:10420000F3CF00006F70656E202573206661696CC6
:1042100065640A00F0B589B00E46054641F200001B
:1042200004F0F2FD60B3044668460022294600F01F
:10423000A9FA002828D4254D41222846314600F00D
:10424000A1FA002826D42C20C7430498C3688BB356
:104250006846214641F200029847002825D429D01B
:10426000064628690369394623B128462146324665
:1042700098470146B142E8D015A004F09DFD19E031
:10428000254804F099FD1EE0204604F0B7FA1EA070
:10429000294607E0204604F0B1FA684600F036FAF5
:1042A00014A0314604F088FD0DE001208006059938
:1042B00001430591684600F029FA044800F026FA07
:1042C000204604F09BFA09B0F0BDC046B0080020BB
:1042D00057726974652066696C6520646174612039
:1042E0006661696C65642C206572726E6F3D256431
:1042F0000A000000577269746520257320666169A1
:104300006C65640A0000000052656164202573201A
:104310006661696C65640A0003D00000F0B581B085
:10432000A94C2368022B39D19588072D009003D022
:104330006B1CC900B1FBF3F12846D3680026072B9C
:1043400037463546334618D0002633467700E51900
:104350002D8C0B2E02D05E1CA942F6DA12681826AC
:104360005643A219D619368F2BB1BB1ED218178F00
:10437000E218138C01E000273B46F21B691A5143F7
:10438000EA1A91FBF2F1711A072802D0401C484347
:10439000C1080098034A914200D31146018001B040
:1043A000F0BDC046FFFF000010B583B0428803692E
:1043B0009A189201372392FBF3F2C368D21A4A800B
:1043C0004269848812199201492492FBF4F2D21AAC
:1043D0008A800021C1800181418103B010BD0000AD
:1043E000F0B583B001910546002602200290012716
:1043F0003446284600F09EF802986860094908781B
:104400003843087068680328FCD16F480089361863
:10441000601C1F2C0446ECD370090199088003B07E
:10442000F0BDC0460020084070B582B00446982018
:10443000205820B106C801920091083800E0684673
:104440000025056019494A78920605D501220260C7
:104450004A78DF2313404B7026468C360A78402A70
:1044600012D30A7852B2002A03D5026802231343FA
:1044700003600A78520603D50268042313430360DD
:104480000A78202313430B70032161600099B16007
:1044900031694160316801B18847F06810B1009915
:1044A000019A06C02583E58202B070BD1C20084039
:1044B000F0B581B0514C2068514D2840401D20601E
:1044C000EFF30380C005400D0E49401840380068E6
:1044D000EFF30381C9054A0D4A4BD65801210F0459
:1044E000BE43D650C28A038B934202D1FFF79CFF92
:1044F00001E090228154206828400421014321607A
:1045000001B0F0BD4C0D0020B0B53C4802683C49FC
:104510000A40521D0260EFF30382D205520D394B5F
:10452000D45801252D04AC43D45002680A40111D13
:104530000160B0BD70B50446C06F826B5068016801
:104540000126CE81204D2868012802D18E81281DA8
:104550000EE0C878F32303400833CB70A08AE368E9
:10456000092B02D00323434300E003468B81E06A1A
:104570004860106892685268904700B170BDE06F63
:10458000C26B50680168CE81C878CF2303401033D6
:104590002868CB70012802D18E81083509E0A08AF5
:1045A000E368092B02D00323434300E003468B81D9
:1045B000256B8D600548486010689268526870BC31
:1045C00008BC9E461047C046100A00202420084020
:1045D000B0B50A4802680A490A40521D0260EFF36A
:1045E0000382D205520D074BD45801252D04AC434C
:1045F000D45002680A40111D0160B0BD400804405B
:10460000FA3FFEFFC0620040F0B589B000F050FAFA
:1046100028B181688A6912B106A9904738B136A0DD
:1046200004F0CAFB0020C443204609B0F0BD08983E
:10463000069D0024049021462A462346FBF7DAFF14
:104640000A468905830A5E181103000D4018110DF2
:10465000014302D1224627461EE002950394920AA6
:1046600001242005059000252B46204607463146AB
:10467000B00A960586190598081A1046A84104D371
:10468000920A0220DB072346F0D0094801400A20A5
:104690004843820A039C029D049800900195B8004B
:1046A00004A10B5806A0314604F086FBBCE7C046C7
:1046B000FF030000E5CF0000E8CF0000E2CF0000DC
:1046C0006469736B20667265653A2025642E2564E3
:1046D000202573205B20256420626C6F636B2C2087
:1046E00025642062797465732070657220626C6F36
:1046F000636B205D0A0000006466735F737461740D
:104700006673206661696C65642E0A0070B578B1C5
:104710000446006941680026354621B12046884795
:104720000546002806D4606804F068F8666001E079
:104730000C20C543284670BD30B42C23DC432346EF
:10474000283358B14588022D08D10369DB691D461D
:10475000002B234602D02B4630BC1847184630BCED
:10476000704710B504462C20C04344B122699269B9
:1047700022B120469047002800D4E06110BD2830C7
:1047800010BD0000F0B583B005462C20C4431DB316
:1047900016460020029000F0C9FBF8B107460196CA
:1047A00000F086F9E0B10646E86028620298E86108
:1047B000A861019969616880B16888682861097990
:1047C000C90712D17068394600F050FC80B170689A
:1047D000394600F04BFC0CE028342DE027342BE068
:1047E000384604F00BF8243426E06F60019E08E0A0
:1047F000A648019E06F0E6FA6860384603F0FEFF20
:104800002869016899B12846884700280ED40120FC
:104810000106686901436961F10305D502216980D8
:104820000321090608436861029C05E004466868A4
:1048300003F0E4FF00206860204603B0F0BDC046EE
:1048400010B504462C20C0433CB12369DB681BB182
:1048500020469847002802D410BD283010BD012101
:10486000890662690A43626110BDF0B581B00D46E8
:1048700001460027384600F059FB01462C20C4436E
:104880002646243689B3002738460091294600F091
:104890004DFB009948B30546084600F009F9064665
:1048A000284600F005F9864204D0143426462F46E7
:1048B00000991AE0B068476A002FF7D00079C00766
:1048C0000CD17068009900F0D1FB0446706829464D
:1048D00000F0CCFB02463046214602E0304600990B
:1048E0002A46B847009906462F46084603F086FF39
:1048F000384603F083FF304601B0F0BDF0B581B01B
:104900000F4601460026304600F010FB04462C20DE
:10491000C543E4B10097204600F0CAF8C8B1074685
:1049200020782F2801D1607810B37868214600F0F4
:104930009DFBE8B1B868066A0EB30079C0072CD1B8
:104940007868214600F092FB0146384627E02C3576
:1049500021E0174804F030FA24A0214604F02CFA94
:10496000204804F029FA204603F048FF243512E0DD
:1049700000990E624E611C48C8800E6012E020460D
:1049800003F03CFF0A4804F017FA0AA004F014FAF6
:10499000144804F011FA2E4607E038462146009AE2
:1049A000B0470646204603F029FF304601B0F0BD6F
:1049B000D9CF00007468652066696C65737973747B
:1049C000656D206469646E277420696D706C656D17
:1049D000656E7420746869732066756E6374696FA0
:1049E0006E00000010D00000FF41000063616E27E0
:1049F000742066696E64206D6F756E7465642066E0
:104A0000696C6573797374656D206F6E2074686965
:104A10007320706174683A257300000070B5014618
:104A2000002000F083FA04462C20C543DCB1204668
:104A300000F03EF8C8B10646204600F01BFCB0B1BD
:104A4000B068C269EAB10079C00712D17068214626
:104A500000F00CFBB168CD6978B17068214600F0B8
:104A600005FB01460AE028350EE0243509E016353D
:104A700007E030462146904702E004493046A84707
:104A80000546204603F0BAFE284670BD12D000004D
:104A900030B403462C20C04333B11C69256925B1CD
:104AA00018462B4630BC1847283030BC70470000F1
:104AB000F0B583B0019020B91BA01DA1562203F0D0
:104AC00059FB00F089F8394D2C4640340020A542AE
:104AD00023D2029000906F68DFB1A868C8B1384651
:104AE000FBF711FE06460298864212D3384601991A
:104AF0003246FBF747FE60B9022E08D30198FBF758
:104B000002FEB04203D90198805D2F2801D10095A3
:104B100002961035A542DED300E0009000F0BCFA0A
:104B2000009803B0F0BDC0467061746800000000DA
:104B30006466735F66696C6573797374656D5F6CC9
:104B40006F6F6B7570000000F0B581B0154F38784D
:104B5000012803D11BA004F02FF91FE01248002404
:104B60001022214604F0FAF910484022214604F0B0
:104B7000F5F90F480822214604F0F0F90D480EA17E
:104B800001252A4604F012FA0D4E3046214640F225
:104B9000001204F0E3F92F2030703D70002001B0C6
:104BA000F0BDC046A8070020D4080020E40800207B
:104BB0008C040020AC09002066736C6F636B0000EE
:104BC000E400002064667320616C72656164792082
:104BD000696E69742E0A0000B0B50620C043841DBA
:104BE000084DC11D04D12846214604F0A3FAF8E778
:104BF00000B9B0BD04A005A16A22B0BC08BC9E46A5
:104C000003F0B8BAAC090020300000006466735F9E
:104C10006C6F636B00000000F0B581B00E4611B3FD
:104C20000446304603F060FCE8B10546FFF7D4FFC8
:104C30000026244FB85920B100682146FBF76AFDD1
:104C400028B3361D102EF5D100F026FA1E4804F0C8
:104C5000B3F82DA0214604F0AFF82A4804F0ACF8D0
:104C60002C20C4430FE02C20C4432046133005F011
:104C7000DDFC154804F0A0F82BA0314604F09CF8A8
:104C8000204804F099F82C34204601B0F0BD00F023
:104C900003FAB859416929B1284601B0F0BC04BCF7
:104CA00096460847084804F087F808A0214604F013
:104CB00083F8144804F080F82C20C443204605F003
:104CC000B5FCE0E7D4080020D9CF00005468652087
:104CD00066696C652073797374656D202825732966
:104CE000206D6B66732066756E6374696F6E2077D6
:104CF0006173206E6F7420696D706C656D656E7484
:104D00000000000010D0000046696C6520737973C4
:104D100074656D202825732920776173206E6F7468
:104D200020666F756E642E00446576696365202881
:104D300025732920776173206E6F7420666F756EFE
:104D400064000000F0B591B01D461746079118B1F8
:104D500003F0CAFB08B979E000200690FFF73CFF9A
:104D60005E4E34461034A64211D203955B4E354652
:104D70001035306820B100683946FBF7CBFC28B10C
:104D8000361DAE42F5D300F087F95FE0039D00F0D9
:104D900083F9A6425AD0306800285CD0C068002849
:104DA00059D000200590079900F0C0F8002856D08F
:104DB0004BA10446FBF7AEFC23462C21CC430293C7
:104DC00080B148A11846FBF7A5FC029B50B1012019
:104DD000020408A81946FFF7D5FC002867D408A8E4
:104DE000FFF794FC0395FFF7F7FE404D284640304F
:104DF0000190854216D23D4D002005902846403056
:104E00000490A86828B168680799FBF783FC28B963
:104E100048E00599284601B10846059010350498E8
:104E20008542EED30198854223D1059808BB2046E0
:104E30000A3005F0FBFB2E4803F0BEFF2DA03946DB
:104E400003F0BAFF384803F0B7FF40E02C20C4431A
:104E50002046133007E02C20C443204603E02C20DA
:104E6000C4432046123005F0E1FB2C34204611B03B
:104E7000F0BD0298059F78603068069D3D60B8607F
:104E800000F00AF925B13868032103F031FBB8B905
:104E9000169A3068C36838460399984700280AD4A0
:104EA0000024E3E72046283005F0C0FB0FE002981D
:104EB00003F0A4FCD5E7069810B1386803F0E8FACF
:104EC000FFF78AFE00211022384604F047F800F070
:104ED000E3F8029803F092FCC7E7C046D40800202C
:104EE0002F0000002F64657600000000E408002019
:104EF000D9CF00005468657265206973206E6F20F9
:104F0000737061636520746F206D6F756E742074AB
:104F10006869732066696C652073797374656D20A8
:104F2000282573292E00000010D00000F0B581B0B4
:104F30000E46054629B940A044A140F27E1203F076
:104F400019F905B9464D30782F2805D1304605F0BE
:104F500039FF0446E8B967E02846FBF7D4FB04466E
:104F60003046FBF7D0FB2018801C03F04DFF0028D3
:104F70005AD004462846FBF7C6FB07463046FBF7E7
:104F8000C2FB00963818811C36A220462B4605F03D
:104F90008BFE23780025E843224621462E2B16D18E
:104FA0004B782F2B05D1491C4B78491C2F2BFBD05C
:104FB000F4E75BB12E2B0AD18B78CBB12F2B06D126
:104FC000891C4B78491C2F2BFBD012E0491C12186E
:104FD0000B78DBB12F2B03D0491C5370521CF7E721
:104FE0002F2353704B78491C2F2BFBD0921CD5E7F5
:104FF000891C1618A6421BD31218944204D2561EBE
:1050000036782F2EF8D1C9E72246C7E7557094426B
:1050100003D010782F2800D11570207810B9657052
:105020002F202070254600E00025284601B0F0BD65
:10503000204603F0E3FBF8E766696C656E616D6519
:1050400020213D204E554C4C000000006466735FEB
:105050006E6F726D616C697A655F70617468000073
:10506000E400002025732F2573000000B0B50D4625
:10507000FBF749FB04462846FBF745FB844201D178
:105080000020B0BD295D28192F29014600D0411EFE
:1050900004B10846B0BD0000E24803F0AFBFC0460F
:1050A000F0B581B0014600242046FFF73FFF78B1FC
:1050B0000546FFF791FD1C4E37464037BE4227D2CA
:1050C000706818B12946FBF725FB38B11036F5E7B3
:1050D0001A20C443204605F0A9FA20E0B06801690F
:1050E000B1B130468847002812D4306808B103F0C7
:1050F000CFF9706808B103F081FB102230462146D9
:1051000003F02CFFFFF7C8FF284603F077FB07E00A
:10511000FFF7C2FF284603F071FB1A20C4431A347C
:10512000204601B0F0BDC046E4080020F0B583B0D1
:10513000009201910290002865D040F2001003F027
:1051400063FE00285FD00746029802F06AF9002843
:1051500042D0064602F06CFF80B305462C1D2BA002
:105160002146FBF7D7FA18B329A02146FBF7D2FA5C
:10517000F0B138462749029A234605F011FE2878F7
:10518000022809D0012813D1384606F081FF48B122
:10519000019868B9204808E038460199009AFFF75D
:1051A000C5FF05E0009818B11C48394603F004FE1D
:1051B000304602F03DFF05460028CFD13046FEF7CD
:1051C0003FF9384603F01AFB029806F061FF80B100
:1051D0000198C0B910480FE0019818B90E4802991B
:1051E00003F0EAFD384603B0F0BC02BC8E4603F083
:1051F00005BB009838B10AA0029903B0F0BC04BC0A
:10520000964603F0D9BD03B0F0BDC0462E000000A5
:105210002E2E00003ED400007FD3000071D300008A
:1052200072656D6F766564206469726563746F7210
:105230007920272573270A0070B50024032816DB80
:10524000944D2968C61E8E4211DAFFF7C5FCB000E6
:1052500069680858002438B101885E4A914203D138
:105260008168491C816004468B4803F0C7FE2046D4
:1052700070BDC046F0B583B0014600252846FFF753
:1052800055FEEC4390B30646FFF712FC58B30746B1
:1052900000950194406801782F2902D14178029647
:1052A00019B1FBF730FA30180290FFF795FC7948F6
:1052B000046884B14568296851B1086940B14868FB
:1052C00030B1C968B94203D10299FBF723FA80B122
:1052D0002D1D641EEFD1704803F090FE304603F0A0
:1052E0008DFA019C02E0304603F088FA204603B0B4
:1052F000F0BD304603F082FA674803F07FFE009C61
:10530000F4E7C046F0B581B0FFF766FC304A176895
:10531000012F0BDB50680026016841B1896831B16B
:10532000001D761CB742F7D13E4600E000260F2F45
:105330001AD8BE4218D10C2F384600DB0C20051DB0
:10534000A900506804F088FA214A1168A8B10446FF
:105350008D4206DD88002018691A8900FBF7A7F93D
:105360001B4A1560546000E03D46AE4203DAB400CB
:1053700050680059E8B1294637468F420BD116A034
:1053800003F01AFD17A003F017FD254803F014FDE4
:105390000020C44307E0B80051680858012181602B
:1053A0000C490180FC1C3C4803F028FE204601B05B
:1053B000F0BD01202421154602F014FF2A46696839
:1053C000085129686868005900280F46D4D1D4E7ED
:1053D0008C040020FDFD00005B452F4446535D20FA
:1053E00000000000444653206664206E6577206903
:1053F00073206661696C65642120436F756C64205D
:105400006E6F7420666F756E6420616E20656D70BE
:10541000747920666420656E7472792E0000000035
:1054200010D00000AC09002070B5044620B914A0CB
:1054300016A1FD2202F09EFEFFF7CEFBA068401EE3
:10544000A06016D1134D2868012812DB012800DC6A
:105450000120696800268A59A24204D0401E361DE8
:105460000028F8D105E0204603F0C8F9686800215B
:105470008151094870BC02BC8E4603F0BFBDC046D6
:10548000666420213D204E554C4C000066645F70E0
:10549000757400008C040020AC09002010B515487C
:1054A00000682421405C800703D414480021017067
:1054B0001DE011480168114819B18022FBF716F967
:1054C00003E00FA10522FBF7D9F80C4C2046FBF7AF
:1054D0001AF922188021091A104600F07DFB204697
:1054E000FBF711F93E212154201800214170034897
:1054F00010BDC046F8110020A80900202409002092
:105500006D73682000000000F0B581B0684600248B
:105510000470184F386828B9174818A1A42202F05F
:1055200029FE386840F210214558E443F5B16A4637
:1055300001232846214603F065F8012814D00126EE
:105540003868214604F0CCFC386840F210214058FD
:10555000A84201D0054648B16A462846214633464E
:1055600003F050F80128EBD168460478204601B0DA
:10557000F0BDC046F811002016D0000066696E73B9
:10558000685F6765746368617200000010B5064C5F
:10559000206828B9054806A1C32202F0EBFD206867
:1055A00004F058FC002010BDF811002016D00000B7
:1055B00066696E73685F72785F696E6400000000F0
:1055C00070B50546214E306820B9214821A1D62268
:1055D00002F0D0FD284602F087FF68B1044630682B
:1055E00040F210214058844205D0204640F2431139
:1055F00002F07EFF38B170BD1CA0294670BC04BC0F
:10560000964603F0D9BB316840F21025485938B1AD
:1056100002F03EFF30684059002103F03DF8316848
:1056200040F2BA10081800255122294603F096FCD2
:10563000306840F20C214550401844600A49204629
:1056400070BC04BC964603F027B8C046F811002091
:1056500016D0000066696E73685F7365745F646579
:1056600076696365000000008D55000066696E7301
:10567000683A2063616E206E6F742066696E6420E4
:105680006465766963653A2025730A00B0B50446FF
:10569000084D286828B9084808A1902202F06AFD40
:1056A00028682421425CFD231340E207920F9A18D8
:1056B0004254B0BDF811002016D0000066696E7328
:1056C000685F7365745F70726F6D70745F6D6F6427
:1056D0006500000070B582B018481949016019488A
:1056E00019490160012040F2142102F07BFD174EA0
:1056F0003060D0B10A2014210091019014A0164905
:105700000024224641F2000305F084FC054630687F
:1057100012A12246234604F067FB0120FFF7B6FFE3
:1057200045B1284605F094FE04E00EA003F044FBCA
:105730000020C443204602B070BDC04610050020C2
:10574000D0DD00000C05002050DC0000F811002026
:10575000747368656C6C00007D5700007368727824
:10576000000000006E6F206D656D6F727920666FAE
:1057700072207368656C6C0A0000000086B0F94DF9
:1057800028682422815C01230593194303928154E4
:1057900040F21021405820B902F05AFE08B1FFF73C
:1057A0000FFFFFF77BFEF04803F006FB002004909C
:1057B00050200290FFF7A8FE0028FBD404462F6873
:1057C0001B2802D105983862F4E740F20C203E18FD
:1057D000386A022806D0012833D15B2C2FD1022051
:1057E0003862E7E7049838622046402C45DD4138AE
:1057F00003283DD8810001A251188F4600F006B859
:1058000000F08AB900F08FB900F09FB9F88C002839
:1058100000D1C8E1411EF98440F2BA16B81989B224
:10582000029A514379182A3103F01CFB2C68A01905
:10583000FAF769FF40F20C2160526118AEE104985A
:1058400038627E2C14DC20460838052800D991E007
:10585000810001A251188F4600F052B800F094B8B0
:1058600000F01EB800F089B800F087B800F018B852
:105870007F2C45D0FF2C9DD07FE00838052879D8B3
:10588000810001A251188F4600F03AB800F07CB8B0
:1058900000F006B800F071B800F06FB800F000B882
:1058A0003D8D3088002800D1BBE0052D00D296E068
:1058B00040F26A103C1840F2BA10391850222046C3
:1058C0000191FAF735FF002800D1AAE000943D4687
:1058D0007A350424284650385022294603F0C2FA6B
:1058E0005035641EF6D100215022009C204603F062
:1058F00035FB32882046019903F0B4FA05258FE084
:105900007088002800D155E7401E70803188491EFC
:10591000318082B28BB2934200D8A4E0B91840F231
:10592000BA16881940F2BB1409199A1A03F0C6FA7C
:10593000286840F20C24015B40180021815528683A
:105940009D49415A401881199FA003F035FA2868F3
:10595000015B00194088884200D92BE7441E974814
:1059600003F02AFA286840F20C21405A641C844251
:10597000F5D31FE7002C00D11CE73088502800D257
:105980007EE000203080A9E070888B492E468B4D48
:1059900050B1049C28460F4603F00EFA394637688A
:1059A000785A641C8442F5D3854803F005FA40F226
:1059B000BA157C19204601F0E9F9FFF76FFD84481C
:1059C0007B49224603F0F8F934686019FAF79BFE28
:1059D00040F20C216052611848803546EAE655B124
:1059E00040F2BA103918029A10466843C019263896
:1059F000FAF79EFEA8B1FD84029A55433C462A342C
:105A000060190021154603F0A9FA40F2BA103918BE
:105A1000388D68432018328803F024FA388D451CED
:105A20003D85FD84614D28680399415CC90703D019
:105A3000634803F0C1F9286840F20C24015B40F28E
:105A4000BA16801901F0CAFAFFF728FD584803F08A
:105A5000B3F9286880195122049E314603F07EFA7A
:105A600028680651A6E657A003F0A6F9286840F278
:105A70000C21415A4018002140F2BA12815499E693
:105A8000718888422AD9421A791840F2BB10081846
:105A900040F2BA16891903F011FA2868464A815A69
:105AA0004018845528680399415CC90707D08118BC
:105AB00009884018811947A003F07EF9286840F250
:105AC0000C263E4F815B821954888C4216D2384690
:105AD00003F072F92868815B641CF6E740F20C263B
:105AE000381840F2BA11445428680399415CC90738
:105AF00004D03048214603F05FF92868815B491CD7
:105B0000815380194288521C428089B2502900D2A8
:105B100050E6002101604DE6F88C3A8D511E81421D
:105B200024DD411C25E070883188884200D341E69D
:105B3000381840F2BA11415C1E4803F03DF928685C
:105B40001D4A815A491C815234E67088002800D1D0
:105B500030E61A4803F030F92868174A815A491E7E
:105B6000815227E6F811002024090020002A00D1E4
:105B700020E640F20C26F98440F2BA10381889B2B7
:105B8000029A514379182A3103F06CF92C6840F2DB
:105B9000BA102018FAF7B7FDA053A1194880204683
:105BA00006F00AFA06E60498F88403E6F8110020E5
:105BB0002409002027D000000E02000014D00000AD
:105BC00010D00000082008000825732020080000DD
:105BD0002AD0000025730000B0B50C460546FEF73C
:105BE000FBFF044928462246FAF780FDFFF754FAE6
:105BF0002846B0BDE40000200FA003F0DDF813A09C
:105C000003F07EFD1349086013A003F079FD0446FC
:105C1000012500262046294603F0FCFD40F2F41041
:105C200005F092FB2046314603F0F4FD40F2F410FB
:105C300005F08AFBEEE7C0460A48656C6C6F20529F
:105C4000542D546872656164210A0000503530316A
:105C500000000000600E00205035303200000000CF
:105C600010B50EA003F04CFD04460EA0214603F033
:105C7000A3F8124A002120460B4603F015FD10B18F
:105C80000FA003F099F80121204603F05FFD10B149
:105C900011A003F091F8002010BDC04650313034FF
:105CA000000000000A2070696E206E756D626572DA
:105CB000203A20307825303458200A00355D000025
:105CC0000A20617474616368206972712066616979
:105CD0006C65642E200A00000A20656E61626C65A6
:105CE00020697271206661696C65642E200A00006B
:105CF00010B5044603F02CF80020012240F20211F6
:105D000002F0ECF862680C20504309490B5E9A429D
:105D100003D10818416880688847002040F20211CA
:105D2000024602F0DBF810BC01BC864603F02EB838
:105D3000640E002070470000F0B593B0092420469F
:105D400003F012FC0EA90C7200210E4612910821DC
:105D5000119106AA0F92001D0E9024A02D4A03F067
:105D60002BF80B20C0430490041D2B4D284603F054
:105D700023F8641CFAD329A003F01EF87F200390B7
:105D800030460EA900F0CEF90290129D012D26DBBF
:105D90000EA8007A059006AC27680498C619FAF791
:105DA000B9FB317A039A1140059A914212D1FAF760
:105DB000B5FBB9681D2922A002D8880022490858DD
:105DC000397C00900191082120A00A46334602F058
:105DD000F3FF01E0FAF7A2FB241D6D1EDCD102984F
:105DE0000028CED1002013B0F0BDC046252D2A2EAC
:105DF000732020202020202020207479706520200E
:105E00002020202020202072656620636F756E742C
:105E10000A000000ECD200009ED10000202D2D2DA4
:105E20002D2D2D2D2D2D2D2D2D2D2D2D2D2D2D2DA2
